:020000040800F2
:10300000C04A00200D310008933B0008773B0008C0
:103010008F3B0008AD360008A14E000800000000FC
:10302000000000000000000000000000FD4100085A
:103030008139000800000000253C0008D543000845
:103040002731000827310008273100082731000800
:1030500027310008273100082731000827310008F0
:1030600027310008273100082731000827310008E0
:10307000B136000827310008273100082731000841
:1030800027310008E53600082731000827310008FD
:1030900027310008273100082731000827310008B0
:1030A00027310008273100082731000827310008A0
:1030B000273100082731000839440008273100086B
:1030C0002731000827310008273100082731000880
:1030D000273100087D460008054700089949000887
:1030E000273100082731000827310008DFF80CD00D
:1030F00000F03CFA0048004775590008C04A00201B
:1031000030BF72B662B680F30888704706488047C1
:1031100006480047FEE7FEE7FEE7FEE7FEE7FEE7BC
:10312000FEE7FEE7FEE7FEE7D9430008ED300008C2
:10313000421C10F8011B0029FBD1801A704710B502
:10314000002200E0521C835C8C5CA34201D1002B66
:10315000F8D1D8B2E1B2401A10BD034611F8012BE4
:1031600000F8012B002AF9D11846704730B50B46FC
:10317000014600202022012409E021FA02F59D42A7
:1031800005D303FA02F5491B04FA02F52844151E7B
:10319000A2F10102F1DC30BD2DE9F05F054600200F
:1031A00092469B4688460646814640241BE02846B8
:1031B00041464746224600F0FAF953465A46C01A9D
:1031C000914110D311461846224600F0E1F92D1A1C
:1031D00067EB01084F4622460120002100F0D8F994
:1031E00017EB00094E41201EA4F10104DFDC484624
:1031F00031462A464346BDE8F09F2DE9FE4F804602
:1032000081EA0300C00F0C46009021F0004123F03A
:103210000045B8EB0200A94105D240462146904640
:103220001C460B46024623F00040104347D0270DB2
:10323000C7F30A00C3F30A510290401A01904028D4
:103240006BDAC3F3130040F4801B0098924620B160
:103250000023D2EB030A63EB0B0B01985946C0F134
:103260004002504600F094F906460D465046594635
:10327000019A00F0ACF910EB08006141002487EAE4
:10328000115284EAE7731A4340D0009A62B3019A5C
:10329000012A4FEA075215DC001B61EB02014FF0D7
:1032A000004202EA0752CDE90042001C41F58011BC
:1032B00032462B4600F0ACF903B0BDE8F08F404633
:1032C0002146F9E7001B61EB0201001C41F5801368
:1032D00000185B412018A2F5001747EB030140EAF4
:1032E000D570B6196D4111E06D084FEA360645EA12
:1032F000C0754FEA0752001B61EB0201001C41F54B
:10330000801149084FEA30000019514132462B46DE
:1033100003B0BDE8F04F00F06CB900980122400006
:103320000023D0EB020263EBE073009821464FEAE2
:10333000E074B8EB000061EB0401E9E783F00043BF
:103340005BE781F0004158E72DE9FE4F81EA030475
:1033500004F0004421F0004100944FF0000B23F0F2
:10336000004350EA01045ED052EA03045BD0C3F389
:103370000A54C1F30A552C44A4F2F3340194A0FB7F
:103380000254C1F3130141F48011C3F3130343F456
:10339000801301FB024400FB034E840A970A44EAAF
:1033A000815447EA8357A4FB076802958D0A05FB01
:1033B00007854FEA932C04FB0C542705029D4FEA26
:1033C000065847EA1637B5EB08056EEB070C870E73
:1033D000920E47EA811742EA8312A7FB0201B6EB7D
:1033E0000B0164EB00042B0D43EA0C335E1844EB35
:1033F0001C50DA465146E7FB0201C5F313044FEABD
:103400000B3343EA14534FEA0432019C43EA0603A8
:10341000A4F10C040294009CCDE900B400F0F8F88B
:1034200003B0BDE8F08F00200146F9E72DE9F04D2B
:1034300081EA030404F0004B21F0004514464FF0EC
:10344000000A23F0004150EA050220D054EA0102AC
:103450001DD0C5F30A570246C5F31303C1F3130089
:10346000C1F30A5640F4801543F48013A7EB060815
:10347000101BD64608F2FD3873EB050002D308F1A5
:10348000010801E092185B41B8F1000F03DA002057
:103490000146BDE8F08D00204FF4801106468446B9
:1034A0000EE0171B73EB050705D3121B63EB050337
:1034B00006434CEA010C49084FEA300092185B4180
:1034C00050EA0107EDD152EA030012D082EA04006B
:1034D00083EA0501084305D0101BAB4106D2012247
:1034E000002306E000224FF0004302E06FF00102EB
:1034F00053101AEB06004CEB085110EB0A0041EB9D
:103500000B01BDE8F04D00F074B8C1F30A52C1F3ED
:10351000130140F2FF3341F480119A4202DA002095
:103520000146704740F233439A42A2F2334202DC32
:10353000524200F03CB800F02BB8000030B5041E39
:1035400071F1000404DB4FF00044404264EB0101E0
:10355000141E73F1000405DB1C464FF00043524279
:1035600063EB0403994208BF904230BD064C074DFF
:1035700006E0E06840F0010394E807009847103443
:10358000AC42F6D3FFF7B6FDAC5E0008CC5E000897
:10359000202A04DB203A00FA02F100207047914013
:1035A000C2F1200320FA03F3194390407047202A08
:1035B00004DB203A21FA02F00021704721FA02F3DD
:1035C000D040C2F120029140084319467047202A9A
:1035D00006DBCB17203A41FA02F043EAE07306E03B
:1035E00041FA02F3D040C2F120029140084319464B
:1035F000704710B5141E73F1000408DA401C41F145
:10360000000192185B411A4301D120F0010010BD66
:103610002DE9F04D92469B4611B1B1FA81F202E0DC
:10362000B0FA80F220329046FFF7B2FF04460F4610
:1036300040EA0A0041EA0B0153465A46084313D0B8
:10364000114653EA010019D0C8F140025046FFF775
:10365000AEFF05460E46504659464246FFF798FFD4
:10366000084305D0012004E020463946BDE8F08D2E
:103670000020054346EAE0762C4337430A98630569
:10368000E40AA0EB08000022FD0A44EA47540A308D
:1036900002D500200146E9E7010510196941DDE97D
:1036A000084500196941BDE8F04DA2E700BFFEE7FB
:1036B00010B5202000F0F2F868B1202000F02EF8BC
:1036C0004021054801F06EFA0021044800F034F86A
:1036D00000200349087010BD004800401C00024053
:1036E0005300002010B54FF0007000F0D7F870B113
:1036F0004FF0007000F012F84021054801F052FA36
:103700000021044800F018F800200349087010BD9B
:1037100000440040800002405200002000F0805130
:1037200011B10349086001E0024948607047000098
:10373000040402400000024021B1026842F001028C
:10374000026004E002684FF6FE731A4002607047A0
:1037500001684FF6FE721140016000210160416076
:103760008160C1604B49884208D14A49083949689B
:1037700041F00F01474A083A51608AE04549143147
:10378000884208D143490839496841F0F001414A6B
:10379000083A51607DE03F492831884208D13D49CF
:1037A0000839496841F470613A4A083A516070E05A
:1037B00038493C31884208D136490839496841F4D2
:1037C0007041344A083A516063E0324950318842CE
:1037D00008D130490839496841F470212D4A083A26
:1037E000516056E02B496431884208D12949083993
:1037F000496841F47001274A083A516049E0254977
:103800007831884208D123490839496841F070610C
:10381000204A083A51603CE01F49884206D1011F06
:10382000096841F00F01021F116032E01A4914319A
:10383000884208D11849091F096841F0F001164A69
:10384000121F116025E014492831884208D112491D
:10385000091F096841F470610F4A121F116018E0D6
:103860000D493C31884208D10B49091F096841F4D0
:103870007041094A121F11600BE00749503188421C
:1038800007D10549091F096841F47021024A121F36
:103890001160704708000240080402400146002001
:1038A000002201F0805313B1054B1A6801E0054B6B
:1038B0001A6802EA01030BB1012000E00020704702
:1038C00000040240000002401AB103680B43036089
:1038D00002E003688B430360704710B50022026862
:1038E00047F6F0739A430C6A8B6823430C692343B1
:1038F0004C6923438C692343CC6923434C6A23439B
:103900008C6A23431A430260CB6843600B68836070
:103910004B68C36010BD000070B505460C4600BF83
:10392000094800780028FBD10120074908700748A2
:10393000056006488C38C0F88440012103480C38E3
:10394000FFF7FAFE70BD0000520000208C0002401C
:1039500070B505460C4600BF074800780028FBD12B
:103960000120054908700548856204620121034869
:103970001C30FFF7E1FE70BD530000200000024044
:10398000704700000549096821F01001034A1160E1
:103990001146096801431160704700000020024091
:1039A00001460020034A106800F038000843106008
:1039B00070470000002002402DE9F041024600253A
:1039C0000026002000230024002791F803C00CF0FB
:1039D0000F0591F803C00CF0100CBCF1000F03D0E0
:1039E00091F802C04CEA050591F800C0BCF1000F47
:1039F00031D0146800202BE04FF0010C0CFA00F3DA
:103A0000B1F800C00CEA03069E4220D183004FF0BB
:103A10000F0C0CFA03F7BC4305FA03FC4CEA040450
:103A200091F803C0BCF1280F06D14FF0010C0CFA3D
:103A300000FCC2F814C00AE091F803C0BCF1480FC2
:103A400005D14FF0010C0CFA00FCC2F810C0401C6C
:103A50000828D1D31460B1F800C0BCF1FF0F34DDE9
:103A6000546800202EE000F1080C4FF0010808FA1D
:103A70000CF3B1F800C00CEA03069E4221D183008A
:103A80004FF00F0C0CFA03F7BC4305FA03FC4CEAA9
:103A9000040491F803C0BCF1280F05D100F1080C13
:103AA00008FA0CF8C2F8148091F803C0BCF1480F72
:103AB00007D100F1080C4FF0010808FA0CF8C2F821
:103AC0001080401C0828CED35460BDE8F08100006F
:103AD000F0B50A46002300240021002500F000462E
:103AE000B6F1004F02D11D4EF16901E01B4E716825
:103AF000C0F3034583B200F44016B6F5401F08D169
:103B000021F07061154E766826F07066134F7E6066
:103B100012E000F48016B6F5801F06D1032606FADF
:103B200005F4A14341F0706106E0460D360103FA49
:103B300006F6B14341F0706122B1460D360103FA39
:103B400006F6314300F00046B6F1004F02D1034EB5
:103B5000F16101E0014E7160F0BD00000000014024
:103B60000246002093680B400BB1012000E00020CA
:103B700070474161704700BFFEE7002101E000226D
:103B800042540A46491C825C002AF8D1704700BFA3
:103B9000FEE7704710B54FF4A06000F039F810BD93
:103BA00070B5002100230F22C47804B3154C24689B
:103BB00004F4E064C4F5E064210AC1F10403CA40DE
:103BC000447804FA03F184781440214309010E4C2F
:103BD0000678A155047804F01F050124AC4005784F
:103BE0006D11AD0005F1E025C5F8004109E004784C
:103BF00004F01F050124AC40044D0678761145F809
:103C0000264070BD0CED00E000E400E080E100E043
:103C100002490143024A1160704700000000FA05A2
:103C20000CED00E07047000001460020034A506898
:103C300020F44040084350607047000000100240EC
:103C400029B1064A52690243044B5A6104E0034A0F
:103C500052698243014B5A617047000000100240D4
:103C600029B1064AD2690243044BDA6104E0034AEF
:103C7000D2698243014BDA617047000000100240B4
:103C800029B1064A12690243044B1A6104E0034A4F
:103C900012698243014B1A61704700000010024014
:103CA00029B1064A92690243044B9A6104E0034A2F
:103CB00092698243014B9A617047000000100240F4
:103CC00029B1064AD2680243044BDA6004E0034A91
:103CD000D2688243014BDA60704700000010024056
:103CE0000F48006840F001000D4908600846406830
:103CF0000C4908400A494860084600680A490840DB
:103D0000074908600846006820F4802008600846DB
:103D1000406820F4FE0048604FF41F008860704740
:103D2000001002400000FFF8FFFFF6FE30B5002152
:103D30000022002400232D4D6D6805F00C0121B1F7
:103D4000042905D0082923D105E0294D056022E08A
:103D5000274D05601FE0254D6D6805F47012234D59
:103D60006D6805F48034022505EB92421CB9214DA3
:103D7000554305600BE01D4D6D6805F400351DB120
:103D80001C4D5543056002E0194D5543056002E0A6
:103D9000174D056000BF00BF144D6D6805F0F001C0
:103DA0000909154D6B5C0568DD4045600F4D6D6878
:103DB00005F4E061090A104D6B5C4568DD408560E3
:103DC0000A4D6D6805F46051C90A0B4D6B5C45687E
:103DD000DD40C560054D6D6805F44041890B074D18
:103DE0006B5CC568B5FBF3F5056130BD00100240A2
:103DF00000127A0000093D00200000203000002061
:103E000010B501460022002300204A11012A02D1E8
:103E1000094C236806E0022A02D1074C236A01E01C
:103E2000054C636A01F01F02012494401C400CB150
:103E3000012000E0002010BD001002400248406850
:103E400000F00C0070470000001002400146002006
:103E5000034A506820F0F0000843506070470000AB
:103E6000001002401149096821F480310F4A1160A5
:103E70001146096821F480211160B0F5803F03D01C
:103E8000B0F5802F0ED106E00849096841F4803171
:103E9000064A116007E00549096841F4A021034A78
:103EA000116000E000BF00BF70470000001002403A
:103EB00001460020034A506820F4E0600843506047
:103EC000704700000010024001460020034A50687D
:103ED00020F4605040EAC10050607047001002407A
:103EE0000149086670470000000042420246002077
:103EF000044B586820F47C1042EA01031843014B3C
:103F0000586070470010024001460020034A506884
:103F100020F003000843506070470000001002408A
:103F20000149086070470000D800424238B50020BF
:103F300000900024002500BF3120FFF761FF0546F7
:103F40000098401C00900098B0F5A06F01D0002DA3
:103F5000F2D03120FFF754FF08B1012400E0002423
:103F6000204638BD10B54FF480715248FFF7F8FD78
:103F700051490870002451A15248FFF7E0F808B9F0
:103F8000012421E050A14F48FFF7D9F808B90224D5
:103F90001AE04FA14B48FFF7D2F808B9032413E009
:103FA0004DA14848FFF7CBF808B904240CE04CA118
:103FB0004448FFF7C4F808B9052405E04AA1414880
:103FC000FFF7BDF800B90624072C5DD2DFE804F046
:103FD0005C041321303F4D000021012001F030FF2F
:103FE0004FF47021002001F02BFF4FF470210220CC
:103FF00001F026FF48E00021012001F021FF4FF4ED
:104000007021002001F01CFF3949022001F018FF47
:104010003AE00021012001F013FF4FF4702100204D
:1040200001F00EFF4FF47061022001F009FF2BE058
:104030000021084601F004FF4FF47021012001F037
:10404000FFFE4FF47021022001F0FAFE1CE0002177
:10405000084601F0F5FE4FF47021012001F0F0FE5A
:104060002349022001F0ECFE0EE00021084601F099
:10407000E7FE4FF47021012001F0E2FE4FF4706181
:10408000022001F0DDFE00BF00BF0B4800780128D0
:1040900005D14FF47021032001F0D2FE06E006485E
:1040A000007818B91249032001F0CAFE01F0E0FEC1
:1040B00010BD0000000C01400700002023400466F2
:1040C000383933005C000020234004663861330037
:1040D00023400466384333002340046639313300FB
:1040E00023400466393233002340046639343300F8
:1040F000000F0F0070B504460D463F48006830B110
:10410000012815D002282DD003286FD14AE0232C96
:104110000DD139480068401C37490860084681685D
:104120008068401C344A906002F10C00445460E006
:10413000402C0ED130480068401C2F4908600846CA
:1041400081688068401C2C4A906002F10C00445445
:1041500007E0232C03D101202749086001E001F08A
:10416000C3FC46E0232C04D1012023490860886069
:1041700017E0214884800068401C1F4908600846F9
:1041800081688068401C1C4A906002F10C00445415
:104190000C388068C0F58070A04200DB0CB901F0DB
:1041A000A3FC26E0144881688068401C124A906095
:1041B00002F10C0044540C388088401E114688805F
:1041C00008468068FF2801DD01F08EFC0A488088DF
:1041D00050B909490C312846FEF7BFFF06480C309C
:1041E000FFF7CBFC01F080FC03E0FFE701F07CFC73
:1041F00000BF00BF70BD00007000002070470000CD
:1042000010B504462146054800F015FE00BF4021C8
:10421000024800F043FD0128F9D110BD00480040DC
:1042200010B5044603E02078FFF7EAFF641C20780D
:104230000028F8D110BD00000FB4F8B5002607A87B
:1042400000901548009A069900F02CFE1248FEF7DF
:104250006FFF0646371D384601F010FC0446232048
:10426000207040206070A670002504E00A48415D7F
:10427000E81C21546D1CB542F8DB0021F01C2154D0
:104280002046FFF7CDFF00200090204601F018FBEC
:10429000F8BC5DF814FB00008001002010B500F0B0
:1042A00001F810BD0CB50020019000903348006863
:1042B00040F480303149086000BF3048006800F4A5
:1042C000003000900198401C0190009818B90198A6
:1042D000B0F5A06FF1D12948006800F4003010B1AA
:1042E0000120009001E0002000900098012843D1B7
:1042F0002348006840F01000214908600846006823
:1043000020F0030008600846006840F002000860E2
:104310001A4840681949486008464068486008469D
:10432000406840F4806048600846406820F47C1093
:1043300048600846406840F4E81048600846006855
:1043400040F08070086000BF0C48006800F000700A
:104350000028F9D00948406820F003000749486068
:104360000846406840F00200486000BF03484068CB
:1043700000F00C000828F9D10CBD0000001002402C
:104380000020024072B600BF0648006800F4E060FA
:1043900005490843001D03490860BFF3408F00BF73
:1043A00000BFFEE70CED00E00000FA05042808D18C
:1043B0004FF0E021096941F004014FF0E022116162
:1043C00007E04FF0E021096921F004014FF0E022FD
:1043D000116170477047000010B51348006840F045
:1043E00001001149086008464068104908400E491C
:1043F0004860084600680E4908400B4908600846B6
:10440000006820F4802008600846406820F4FE0020
:1044100048604FF41F008860FFF740FF4FF00060D6
:104420000449086010BD0000001002400000FFF8C1
:10443000FFFFF6FE08ED00E010B50121084800F08E
:104440000BF960B10121064800F00EF8054800782C
:10445000401C044908700121014800F005F810BD16
:104460000008004006000020CA4302827047000096
:1044700010B504466848844208D10121C014FFF7F2
:104480001FFC0021E014FFF71BFCC4E0B4F1804FD7
:1044900008D101210846FFF7F3FB00210120FFF7B7
:1044A000EFFBB8E05D48844208D101210220FFF70C
:1044B000E7FB00210220FFF7E3FBACE05848844211
:1044C00008D101210420FFF7DBFB00210420FFF7C6
:1044D000D7FBA0E05348844208D101210820FFF710
:1044E000CFFB00210820FFF7CBFB94E04E4884422D
:1044F00008D101211020FFF7C3FB00211020FFF796
:10450000BFFB88E04948844208D101212020FFF701
:10451000B7FB00212020FFF7B3FB7CE04448844236
:1045200008D101214014FFF7CBFB00216014FFF7F5
:10453000C7FB70E03F48844209D10121C804FFF75E
:10454000BFFB00214FF40020FFF7BAFB63E03A48BD
:10455000844209D101210805FFF7B2FB00214FF485
:104560008010FFF7ADFB56E03448844209D10121A9
:104570004805FFF7A5FB00214FF40010FFF7A0FB53
:1045800049E02F48844208D101214020FFF778FB01
:1045900000214020FFF774FB3DE02A48844208D107
:1045A00001218020FFF76CFB00218020FFF768FBD2
:1045B00031E02548844208D101218015FFF760FBD6
:1045C0000021A015FFF75CFB25E02048844209D1BB
:1045D00001210804FFF774FB00214FF48030FFF73E
:1045E0006FFB18E01A48844209D101214804FFF703
:1045F00067FB00214FF40030FFF762FB0BE015482A
:10460000844208D101218804FFF75AFB00214FF4AE
:104610008020FFF755FB10BD002C01400004004036
:1046200000080040000C0040001000400014004052
:1046300000340140004C0140005001400054014052
:1046400000180040001C00400020004000400140D5
:10465000004401400048014030B5024600200023DC
:104660000024158A05EA0103958905EA010413B1BE
:104670000CB1012000E0002030BD000010B540F278
:1046800025511D4800F017FB10B31B4800F0CEFB6E
:10469000C4B21A48008800F40040C8B9174800881E
:1046A00000F4804060B10A2C03D000201349088038
:1046B00020E01248008840F400401049088019E0CA
:1046C0000D2C06D10D48008840F480400B4908802D
:1046D00010E00A480088C0F30D0009490C5407484F
:1046E0000088401C0549088008460088C72801DD6D
:1046F0000020088010BD0000003801404800002064
:104700005F4000202DE9FC4100BF002740F2255109
:104710006C4800F0D0FA002851D06A4800F086FBBF
:10472000C4B26948008800F40040002847D16648B8
:10473000008800F4804090B16348008844F214017E
:1047400088423CDA0A2C03D000205F49088036E01A
:104750005D48008840F400405B4908802FE05A48DB
:104760000088142808DA0D2C06D15748008840F438
:1047700080405549088022E05348008814280CDD09
:104780005148008842F6DA01884206D14E48008836
:1047900040F440404C49088011E04B480088C0F389
:1047A0000D004A490C5448480088401C464908807E
:1047B00008460088B0F5705F01DB0020088040F2F9
:1047C0002441404800F077FA002878D040F2244194
:1047D0003C4800F0F0F93C48008800F440465EB1E7
:1047E000B6F5404F08D138480088C0F30D050020C9
:1047F000354908803549485532480088C7B23148A4
:10480000001D0088C7B232A13048FEF798FC18B9E5
:1048100033A12C4800F013FB35A12C48FEF78FFC88
:1048200028B938A1274800F00AFBFFF7ABFD3BA1F0
:104830002648FEF784FC30B93DA1224800F0FFFA7B
:1048400006204349087043A12048FEF778FC18B9B8
:1048500040A1454800F0F3FA44A11C48FEF76FFC64
:1048600018B942A1404800F0EAFA45A11748FEF7FE
:1048700066FC18B942A13C4800F0E1FA1348007800
:1048800055280BD111484078532807D13FA0006824
:104890000190032101A8FFF73FF800BF0B48007803
:1048A00010280CD109484078472808D138A103C9FD
:1048B000CDE9000129460548FFF74AF800BFBDE8E9
:1048C000FC810000004400403C00002094020020D5
:1048D000696D656469732B4855422B5600000000D2
:1048E000555342204855422076312E302E3100005B
:1048F000696D656469732B4855422B55504441548A
:104900004100000055534220485542BDF8C8EBB85D
:10491000FCD0C2C4A3CABDA3A1A3A100696D6564F4
:1049200069732B4855422B55504441544131000086
:1049300055534220485542204A554D50BDF8C8EBCA
:10494000B8FCD0C2C4A3CABDA3A1A3A100000000AB
:1049500000000020696D656469732B50422B55502F
:10496000444154410000000000480040696D656406
:1049700069732B50422B5550444154413100000083
:10498000696D656469732B50422B5600313100000C
:10499000444D41333300000070B500BF002640F2A3
:1049A00025514A4800F087F930B3484800F03EFAF4
:1049B000C4B247492046FFF79DFB4648008800F4F3
:1049C0000040C8B94348008800F4804060B10A2C18
:1049D00003D000203F49088020E03E48008840F492
:1049E00000403C49088019E00D2C06D13948008868
:1049F00040F480403749088010E036480088C0F312
:104A00000D0035490C5433480088401C314908805A
:104A100008460088C72801DD0020088040F22441B4
:104A20002A4800F048F900284ED040F22441274897
:104A300000F0C1F82748008840F40040254908806C
:104A400028B10846057800200880234948551F48AA
:104A50000088C6B21D48001D0088C6B21FA11E48AE
:104A6000FEF76DFB18B91DA1214800F0E8F921A15E
:104A70001948FEF764FB18B91EA11D4800F0DFF9C4
:104A800029A11548FEF75BFB18B92BA1184800F0C7
:104A9000D6F92EA11048FEF752FB18B92BA11448E5
:104AA00000F0CDF930A10C48FEF749FB18B92EA152
:104AB0000F4800F0C4F936A10748FEF740FB18B9CB
:104AC00033A10B4800F0BBF970BD00000048004066
:104AD0005C0000203E000020943E0020506F77656F
:104AE0007220426F6172642076312E302E310000C8
:104AF000004400405057BDF8C8EBB8FCD0C2C4A376
:104B0000CABDB3C9B9A6A3A1A3A135C3EBC4DACE6C
:104B1000DED0C2B3CCD0F2D7D4B6AFD6B4D0D0BEEC
:104B2000C9B3CCD0F20000005042B9CCBCFEB8FCF6
:104B3000D0C2CDEAB3C921005042B9CCBCFEB8FC0A
:104B4000D0C2CDEAB3C9A3A100000000BFAACABC6D
:104B5000D6B4D0D05042B8FCD0C2B9CCBCFEB4FA66
:104B6000C2EB212100000000C3BBD3D0BFC9D2D407
:104B7000B8FCD0C2B5C4B9CCBCFE2C5042BFAACA46
:104B8000BCD6B4D0D0BEC9B3CCD0F2B4FAC2EB001C
:104B90005042D5FDB3A3B8FCD0C2B2E2CAD4CDEA2C
:104BA000B3C9000001F40072B2F5007F00D100BF6C
:104BB000CA430280704710B50022002340F66A14F1
:104BC000A14200D100BF0A1201249440A3B2DC43E9
:104BD000048010BD21B1828942F40052828104E038
:104BE00082894DF6FF731A40828170471AB1838A19
:104BF0000B43838202E0838A8B43838270470000E9
:104C000010B504462048844209D101218803FFF7EA
:104C100057F800214FF48040FFF752F832E01B486C
:104C2000844209D101214804FFF72AF800214FF4FA
:104C30000030FFF725F825E01548844209D101210D
:104C40008804FFF71DF800214FF48020FFF718F8C3
:104C500018E01048844209D10121C804FFF710F878
:104C600000214FF40020FFF70BF80BE00A488442C4
:104C700008D101210805FFF703F800214FF4801047
:104C8000FEF7FEFF10BD0000003801400044004068
:104C900000480040004C0040005000400246002008
:104CA000B1F5007F00D100BF13880B400BB101208C
:104CB00000E00020704770B5024600240023002564
:104CC000002040F66A16B14200D100BFC1F3421580
:104CD00001F01F03012606FA03F3012D02D1968984
:104CE000334006E0022D02D1168A334001E0968A55
:104CF00033400C12012606FA04F41688344013B12E
:104D00000CB1012000E0002070BDF0B50346002486
:104D100000260025002040F66A17B94200D100BFE6
:104D20001846C1F3421401F01F06012707FA06F5E1
:104D3000012C01D10C3004E0022C01D1103000E034
:104D400014301AB107682F43076002E00768AF43C9
:104D50000760F0BD2DE9F04786B005460E460024F9
:104D6000A24600BFA1460027B08900B100BF2F4670
:104D70002C8A4CF6FF700440F08804432C82AC89E6
:104D80004EF6F3100440B088318908437189084316
:104D90000443AC81AC8A4FF6FF400440B089044321
:104DA000AC8201A8FEF7C2FF1F48874202D1DDF89E
:104DB00010A001E0DDF80CA0A88900F4004040B18B
:104DC0000AEBCA0000EB0A1031684900B0FBF1F8A9
:104DD00007E00AEBCA0000EB0A1031688900B0FB5B
:104DE000F1F86420B8FBF0F004012009642101FB14
:104DF0001089A88900F4004040B1322000EBC900BE
:104E0000B0FBF1F000F00700044308E0322000EBB3
:104E100009106421B0FBF1F000F00F0004432C8175
:104E200006B0BDE8F08700000038014001468888E0
:104E3000C0F308007047C1F308028280704770B564
:104E400006460C46002540213046FFF7ABFE0FE03A
:104E5000615D3046FFF7EFFF00BF40213046FFF7AE
:104E60001DFF0028F9D040213046FFF79BFE6D1C46
:104E7000605D0028ECD170BD08B501210820FEF767
:104E80000FFF4FF4E070ADF8000048208DF80300EC
:104E900069460248FEF790FD08BD0000000C014085
:104EA00000BFFEE737B514460846064B6A46214662
:104EB00000F0CCF804466946002000F05EFC204675
:104EC0003EBD00007B57000802E008C8121F08C161
:104ED000002AFAD170477047002001E001C1121F7B
:104EE000002AFBD1704700002DE9FF5FDDE90220B9
:104EF000010DDDF838B0024318D044F61050A1F28D
:104F0000FF3141430D140F98012820D0A5EB0B0071
:104F1000401C5FEA000A4FF00004474EDFF81C9186
:104F2000A046504616D5CAF1000728E00F98012484
:104F300043A2012808D0002100980F9BC0E900215E
:104F4000C0E90243BDE8FF9F6FEA0B01F4E7CBF134
:104F50000000DEE7074612E0F80707D02246334696
:104F600040464946FEF7F0F98046894622463346D8
:104F700010461946FEF7E8F904460E467F10002F4A
:104F8000EAD1DDE90201BAF1000F42464B4602DAEE
:104F9000FEF7DAF901E0FEF749FA04460E46002270
:104FA000284BFEF7CBFA03D84FF0FF30014607E05D
:104FB0000022254B20463146FEF71FF9FEF7A5FAE1
:104FC000102409E0002C0ADB0A220023FEF7E4F893
:104FD000019B30321A55641E50EA0102F2D1641C62
:104FE000019AC4F1110314440F9A012A03D001223B
:104FF00008430DD10AE0084304D000204FF0110B04
:105000000F9080E7A3EB0B056D1E0DE05B4504DD03
:105010004FF0000205F1010504E003DA4FF0000251
:10502000A5F10105002AECD000980F99C0E90231E2
:10503000C0E9004586E70000000024400000F03F82
:10504000300000000000F0430000E03F2DE9FF4F7A
:1050500095B09B468946064600250FE2252877D164
:1050600000242746F84A0121059400E0044316F87D
:10507000013F203B01FA03F01042F7D130782A2893
:1050800011D06FF02F033078A0F13002092A16D822
:10509000059A44F0020402EB820203EB4202104440
:1050A000761C0590EFE759F8042B0592002A03DAE5
:1050B000504244F40054059044F00204761C3078C9
:1050C0002E2816D116F8010F44F004042A280DD01A
:1050D0006FF02F023078A0F13003092B09D807EBCD
:1050E000870302EB4303C718761CF3E759F8047BE8
:1050F000761C30786C280FD006DC4C2817D0682836
:105100000DD06A2814D104E0742810D07A280FD169
:105110000DE044F400140AE044F4801401E044F487
:1051200040147278824202D104F58014761C761CF9
:10513000307866280BD013DC582877D009DC00289B
:1051400075D04528F6D04628F4D047281AD19DE1DD
:1051500018E0632835D0642879D0652812D195E10C
:10516000702873D008DC6728F1D069286FD06E28CA
:105170000DD06F2806D1B5E073282CD0752875D0D6
:10518000782874D05A46179990476D1C75E1C4F37E
:105190000250022809D003280DD0D9F800100428A5
:1051A0000DD00D6009F1040967E1D9F80010EA1784
:1051B000C1E90052F6E7D9F800100D80F2E70D7052
:1051C000F0E719F8041B8DF8001000208DF801009D
:1051D000EA46012003E059F804AB4FF0FF306107C5
:1051E0004FF0000102D40DE008F101018846B942F8
:1051F0000FDA8045F8DB1AF808100029F4D108E02E
:1052000008F1010188468142FADB1AF808100029EA
:10521000F6D105985B46A0EB080721463846179A59
:1052200000F094FA284400EB080507E04DE029E17E
:105230000DE01AF8010B5A4617999047B8F101088A
:10524000F7D25B4621463846179A13E142E00A221C
:105250000092C4F302524FF0000A022A08D059F813
:1052600004CB032A4FEAEC710AD00DE029E02AE0D2
:1052700009F1070121F00702F2E802C1914609E0B5
:105280000FFA8CFC4FEAEC71042A03D14FFA8CFC24
:105290004FEAEC71002907DA0A460021DCF1000C24
:1052A00061EB02012D2202E0220504D52B228DF8AC
:1052B0000420012203E0E20701D02022F7E7904614
:1052C00059E00A2102E010220DE010214FF0000AFF
:1052D00000910BE010224FF0000A44F0040408276C
:1052E000009203E008224FF0000A0092C4F3025239
:1052F000022A05D059F804CB0021032A08D009E07E
:1053000009F1070121F00702F2E802C1914605E028
:105310001FFA8CFC042A01D10CF0FF0C4FF000089E
:10532000220728D5702806D0009B83F0100353EA8B
:105330000A0305D00EE040228DF80420012208E087
:105340005CEA010206D030228DF804208DF80500B9
:1053500002229046009B83F0080353EA0A030AD115
:105360005CEA010201D1620705D530228DF80420E4
:105370004FF001087F1E582804D034A003900EA8D7
:1053800002900DE036A0F9E753466046009AFDF71B
:1053900003FF84460398825C0298401E02900270CC
:1053A0005CEA0100F0D1029806A9081A00F1200A6F
:1053B000600702D524F4803400E00127574502DD60
:1053C000A7EB0A0000E0002000EB0A01009005981E
:1053D0004144401A0590E00306D45B462146179AE3
:1053E000059800F0B3F90544002706E001A85A46E5
:1053F000C05D179990476D1C7F1C4745F6DBE003A5
:105400000CD55B462146179A059800F09FF9054494
:1054100004E030205A46179990476D1C0099481EA9
:1054200000900029F5DC08E0029802995A460078BD
:10543000491C0291179990476D1CBAF10001AAF11D
:10544000010AF1DC65E10000092801003031323346
:1054500034353637383961626364656600000000B0
:10546000303132333435363738394142434445469A
:105470000000000000F058F90544761C3078002840
:105480007FF4ECAD19B02846BDE8F08F620700D478
:10549000062709F1070222F0070CFCE80223E14687
:1054A00003F000485FEA080C02D00FF2702C0DE008
:1054B0005FEA045C02D50FF2682C07E05FEAC47C67
:1054C00002D00FF2602C01E0AFF2700C4FF0FF3809
:1054D00023F00043CDF850C065280CD006DC4528E9
:1054E00009D046281DD047283DD13DE0662818D078
:1054F00067287ED138E00021112F01DB112000E068
:10550000781CCDE9000106A90EA8FFF7EDFCDDE946
:105510000F010E9A03910021009207F1010A0491F4
:105520004DE04FF000400097CDE9011006A90EA80C
:10553000FFF7DAFCDDE90F0203920E9B11990022BE
:10554000DDF80CA00093049211B9791C00EB010A5C
:10555000B7EB0A0004D4C0F1FF3007F1010A049050
:10556000AAEB0700019044E0012F00DA0127002197
:10557000112F01DD112000E03846CDE9000106A918
:105580000EA8FFF7B1FCDDE90F010E9A039100218F
:1055900004910092BA4621070CD40399514500DAD0
:1055A0008A46BAF1010F05DD009AAAF10101515CAA
:1055B000302908D0B84202DA10F1040F06DA0121CE
:1055C000CDE9011015E0AAF10101E9E7002805DCA9
:1055D000049901440491AAEB000102E0411C5145E9
:1055E00000DD8A460499401A401C01904FF00040AB
:1055F0000290200704D40198504501DBCDF80480C7
:1056000000208DF84F0002980DF14F07B0F1004FC8
:1056100025D02B200E9002984FF0020800280CDABB
:10562000404202902D200E9007E00A210298FDF7DB
:105630009DFD3031029007F8011DB8F10001A8F17D
:105640000108F2DC02980028EFD1791E0E9808704C
:10565000307800F0200040F0450007F8020D12A855
:10566000C01B00F107081498007800B1012000EB7E
:105670000A01019801EBE07105984144401A401E6F
:105680000590E00306D45B462146179A059800F082
:105690005DF805441498007818B15A461799904758
:1056A0006D1CE00324D55B462146179A059800F04F
:1056B0004DF805441CE00498002807DBDDE90301F0
:1056C000884203DD0098405C179901E0179930206B
:1056D0005A469047049805F10105401C0490019832
:1056E000401E019004D12E205A46179990476D1CF8
:1056F000BAF10001AAF1010ADDDC05E017F8010B9F
:105700005A46179990476D1CB8F10001A8F101089D
:10571000F4DC5B462146179A0598ABE62D000000A5
:105720002B000000200000002DE9F0410446002578
:105730001E461746880404D405E039462020B047A9
:105740006D1C641EF9D52846BDE8F0812DE9F041B5
:10575000044600251E469046C80301D5302700E0C8
:105760002027880404D505E041463846B0476D1C23
:10577000641EF9D52846BDE8F0810A68531C0B6009
:105780001070704710B5FEF7ABFA4FF48030FEF79B
:1057900069FBFEF7CBFB0446012C2BD11020FEF752
:1057A000F1F80220FEF7FCF84FF4E0112004FEF7B8
:1057B0009DFB0120FEF794FB00BF3920FEF720FB84
:1057C0000028FAD00220FEF79FFB00BFFEF736FB51
:1057D0000828FBD10020FEF739FB4FF48060FEF76C
:1057E00067FB0020FEF770FB0020FEF799FB00200E
:1057F000FEF71AFA10BD000010B56FF00400FEF7B6
:10580000D5FD0A4800680A49B0FBF1F00949087063
:105810000846007800EB4001C1EBC0104FF6FF7165
:1058200001EAC0000449088010BD00000C000020FF
:1058300000127A0034000020360000200146114A90
:1058400012884A434FF0E0235A6100229A611A46B7
:10585000126942F001021A6100BF4FF0E0221069A4
:1058600000F001021AB100F48032002AF5D04FF0A6
:10587000E022126922F001024FF0E0231A610022B7
:105880009A6170473600002008B501211020FEF70C
:1058900007FA1020ADF8000048208DF80300694693
:1058A0000648FEF789F82020ADF8000048208DF862
:1058B000030069460148FEF77FF808BD001001406B
:1058C00010B5002821D0114B0022001F196803E0F9
:1058D000814203D80A4649680029F9D152B11368B8
:1058E000841A9C4204D1006818441060104602E0FB
:1058F000506000E0186039B102680B1A934203D17E
:105900000B681A4402604968416010BD54000020D1
:1059100010B5044672B61148FEF7AAFD1048FFF70D
:105920006FF91048FFF76CF90F48FDF711FF0E48AB
:105930006438FDF70DFFFEF7D3F920680B490840E6
:10594000B0F1005F08D16068094908602068FDF780
:10595000DAFB07480068804710BD000000080040DF
:105960000044004000480040800002400000FB2F3F
:105970004C00002033483449086062B6FEF70AF94B
:10598000FFF700FFFFF738FF4FF4E13000F0F8F8C1
:105990004FF4E13000F090F9FFF776FF00F012FAD3
:1059A000FEF7E0FAFFF768FA00F0A6F800F040F919
:1059B00026A12B48FFF743FA43E02A48007806283F
:1059C00003D14FF00060FFF7A3FF0F22002108462C
:1059D00000F0D8F90446012100F0DAF9FEF7C2FA26
:1059E00000202149087021488068214908800A2048
:1059F000FFF724FF1D4880681E4908801C48008866
:105A00000988884203D101201749087008E0184826
:105A1000008818490988884202D00220124908707B
:105A200011480078012803D100200F49087008E0D0
:105A30000D480078022804D10E4801880EA0FEF718
:105A4000FBFBBAE70030000808ED00E0494D454493
:105A500049532036303030205445535421213100F1
:105A60000044004000000020010000200010014020
:105A7000020000200400002025780000F0B50B3063
:105A8000154D20F007010024144A0FE003688B42F3
:105A90000BD38B4205D95E1A43184768C3E90067E8
:105AA00000E04368136002C004E0021D1068002893
:105AB000ECD12046002802D1286808B10020F0BDB2
:105AC000064A07481060074A121A22F00702C0E986
:105AD000002401202860D7E758000020540000204F
:105AE000C4440020C046002000200249086088808D
:105AF000886070477000002000B58DB00121084615
:105B0000FEF79EF811208DF8040003208DF80500A3
:105B100001208DF806008DF8070001A8FEF740F877
:105B20001448FDF715FE1448029014480390102005
:105B30000490C82005900020069080200790002047
:105B4000089009900A904FF400500B9000200C90A0
:105B500002A90848FDF7C1FE012202210548FDF710
:105B6000B3FE012280210448001FFFF73FF80DB06B
:105B700000BD000080000240044400409F4100201E
:105B800010B586B0044601210420FEF789F80121F2
:105B90004804FEF765F80820ADF8140004208DF8DD
:105BA000170005A92048FDF707FF0420ADF81400F1
:105BB00003208DF8160018208DF8170005A91A4843
:105BC000FDF7FAFE01940020ADF80800ADF80A00D8
:105BD000ADF80C00ADF810000C20ADF80E0001A9D6
:105BE0001248FFF7B7F801211048FEF7F3FF012232
:105BF00040F225510D48FFF788F8012240F2244178
:105C00000A48FFF782F826208DF8000003208DF85F
:105C100001008DF8020001208DF803006846FDF7B1
:105C2000BFFF06B010BD0000000801400044004066
:105C300000B58DB001210846FEF702F80C208DF862
:105C4000040003208DF8050004208DF806000120D3
:105C50008DF8070001A8FDF7A3FF1448FDF778FDB4
:105C6000134802901348039010200490C820059018
:105C700000200690802007900020089009900A904C
:105C80004FF400500B9000200C9002A90748FDF73C
:105C900024FE012202210548FDF716FE0122802183
:105CA0000348001FFEF7A2FF0DB000BD1C0002401C
:105CB000044800406742002010B586B00446012128
:105CC0001020FDF7EDFF01210846FDF7E9FF012156
:105CD0008804FDF7C5FF01212748FDF7F9FE274895
:105CE000FEF78EFF4FF40060ADF8100004208DF831
:105CF000130004A92248FDF75FFE4FF48060ADF861
:105D0000100003208DF8120018208DF8130004A94C
:105D10001B48FDF751FE00940020ADF80400ADF8DB
:105D20000600ADF80800ADF80C000C20ADF80A0034
:105D300069461248FFF70EF801211048FEF74AFFA6
:105D4000012240F225510D48FEF7DFFF012240F20B
:105D500024410A48FEF7D9FF27208DF814000020BF
:105D60008DF815008DF8160001208DF8170005A894
:105D7000FDF716FF06B010BD1000140000480040EB
:105D8000001001400346080440EA03201043704716
:105D900070B505460E464FF0FF3409E0A0B2294623
:105DA00000F04EF800F064F83046FFF747FD641C41
:105DB000052CF3DB70BD00BF0100A0F10100FBD199
:105DC0007047000008B501210420FDF769FF80201D
:105DD000ADF8000010208DF8030003208DF80200BC
:105DE00069460448FDF7E8FD80210248FDF7C1FE41
:105DF00008BD00000008014010B580200649086079
:105E00000220FFF7D8FF80200349091D0860012008
:105E1000FFF7D1FF10BD00001008014010B5802031
:105E2000064908600120FFF7C6FF80200349091DCD
:105E300008600220FFF7BFFF10BD000010080140FE
:105E400030B502460020052A0FDA00BF0BE001FA48
:105E500000F3C3F3C05302EB4204044D05EBC4044A
:105E60002354431CD8B21828F1DB30BD2741002051
:105E700070B5002414E000250EE004EB44000A494C
:105E800001EBC000405D012802D1FFF7B5FF01E042
:105E9000FFF7C4FF681CC5B2182DEEDB601C84B28E
:105EA000052CE8DB70BD000027410020CC5E000817
:105EB000000000205C000000C84E0008285F0008B9
:105EC0005C000020644A0000D84E0008000000007A
:105ED000000000000000000000A24A0400000000D2
:105EE000000000000102030406070809000000008A
:105EF000010203040102030406070809020406085C
:105F00000000000000000000000000000000000091
:105F10000000000000000000000000000000000081
:085F2000000000000000000079
:04000005080030EDD2
:00000001FF
